{
    "contractName": "Coin",
    "abi": [
        {
            "anonymous": false,
            "inputs": [
                {
                    "indexed": false,
                    "internalType": "address",
                    "name": "from",
                    "type": "address"
                },
                {
                    "indexed": false,
                    "internalType": "address",
                    "name": "to",
                    "type": "address"
                },
                {
                    "indexed": false,
                    "internalType": "uint256",
                    "name": "amount",
                    "type": "uint256"
                }
            ],
            "name": "Sent",
            "type": "event"
        },
        {
            "inputs": [
                {
                    "internalType": "address",
                    "name": "",
                    "type": "address"
                }
            ],
            "name": "balances",
            "outputs": [
                {
                    "internalType": "uint256",
                    "name": "",
                    "type": "uint256"
                }
            ],
            "stateMutability": "view",
            "type": "function"
        },
        {
            "inputs": [
                {
                    "internalType": "address",
                    "name": "receiver",
                    "type": "address"
                },
                {
                    "internalType": "uint256",
                    "name": "amount",
                    "type": "uint256"
                }
            ],
            "name": "mint",
            "outputs": [],
            "stateMutability": "nonpayable",
            "type": "function"
        },
        {
            "inputs": [],
            "name": "minter",
            "outputs": [
                {
                    "internalType": "address",
                    "name": "",
                    "type": "address"
                }
            ],
            "stateMutability": "view",
            "type": "function"
        },
        {
            "inputs": [
                {
                    "internalType": "address",
                    "name": "receiver",
                    "type": "address"
                },
                {
                    "internalType": "uint256",
                    "name": "amount",
                    "type": "uint256"
                }
            ],
            "name": "send",
            "outputs": [],
            "stateMutability": "nonpayable",
            "type": "function"
        }
    ],
    "bytecode": "608060405234801561001057600080fd5b506102ba806100206000396000f3fe608060405234801561001057600080fd5b506004361061004c5760003560e01c8063075461721461005157806327e235e31461008157806340c10f19146100af578063d0679d34146100c4575b600080fd5b600054610064906001600160a01b031681565b6040516001600160a01b0390911681526020015b60405180910390f35b6100a161008f3660046101f3565b60016020526000908152604090205481565b604051908152602001610078565b6100c26100bd366004610215565b6100d7565b005b6100c26100d2366004610215565b61011e565b6000546001600160a01b031633146100ed575050565b6001600160a01b03821660009081526001602052604081208054839290610115908490610255565b90915550505050565b33600090815260016020526040902054811115610139575050565b336000908152600160205260408120805483929061015890849061026d565b90915550506001600160a01b03821660009081526001602052604081208054839290610185908490610255565b9091555050604080513381526001600160a01b03841660208201529081018290527f3990db2d31862302a685e8086b5755072a6e2b5b780af1ee81ece35ee3cd33459060600160405180910390a15050565b80356001600160a01b03811681146101ee57600080fd5b919050565b60006020828403121561020557600080fd5b61020e826101d7565b9392505050565b6000806040838503121561022857600080fd5b610231836101d7565b946020939093013593505050565b634e487b7160e01b600052601160045260246000fd5b600082198211156102685761026861023f565b500190565b60008282101561027f5761027f61023f565b50039056fea2646970667358221220707c154c4f8daedadb896878087c1e85464516e3340be87d995d8a1a747883f364736f6c634300080b0033",
    "sourcePath": "/home/gapparoni/Desktop/Solidity/Contract.sol",
    "compiler": {
        "name": "solc",
        "version": "0.8.11+commit.d7f03943"
    },
    "functionHashes": {
        "balances(address)": "27e235e3",
        "mint(address,uint256)": "40c10f19",
        "minter()": "07546172",
        "send(address,uint256)": "d0679d34"
    },
    "gasEstimates": {
        "creation": {
            "codeDepositCost": "139600",
            "executionCost": "183",
            "totalCost": "139783"
        },
        "external": {
            "balances(address)": "2519",
            "mint(address,uint256)": "26874",
            "minter()": "2304",
            "send(address,uint256)": "52941"
        },
        "internal": {
            "Coinx()": "infinite"
        }
    }
}